:100000000C9434000C9446000C9446000C9446006A
:100010000C9446000C9446000C9446000C94460048
:100020000C9446000C9446000C9446000C94460038
:100030000C9446000C9446000C9446000C94460028
:100040000C9446000C9446000C9446000C94460018
:100050000C9446000C9446000C9446000C94460008
:100060000C9446000C94460011241FBECFEFD8E03C
:10007000DEBFCDBF21E0A0E0B1E001C01D92A23102
:10008000B207E1F70E9448000C9484000C94000031
:1000900080E007C0E82FF0E093B1EE5FFE4F908361
:1000A0008F5F8830B8F387B1816087B98AB18FEFED
:1000B0008AB986B1809301018091010181FDF9CF58
:1000C00088B1816088B980E890E827E033E03A950C
:1000D000F1F700008BB933E03A95F1F7000033B146
:1000E000309300013091000133231CF0392F3095FB
:1000F0008323211105C08BB988B18E7F88B9D9CFF0
:0C01000021509695892BE2CFF894FFCF98
:00000001FF
