:100000000C9434000C943E000C943E000C943E0082
:100010000C943E000C943E000C943E000C943E0068
:100020000C943E000C943E000C943E000C943E0058
:100030000C943E000C943E000C943E000C943E0048
:100040000C943E000C943E000C943E000C943E0038
:100050000C943E000C943E000C943E000C943E0028
:100060000C943E000C943E0011241FBECFEFD8E04C
:10007000DEBFCDBF0E9457000C9460000C940000BE
:10008000CF93DF93882371F0C82FD0E081500E9476
:1000900040009C01C29FC001C39F900DD29F900D54
:1000A000112402C081E090E0DF91CF9108958AB1E0
:1000B0008FEF8AB983B187700E9440008BB9FACF65
:0400C000F894FFCFE2
:00000001FF
