:100000000C9434000C943E000C943E000C943E0082
:100010000C943E000C943E000C943E000C943E0068
:100020000C943E000C943E000C943E000C943E0058
:100030000C943E000C943E000C943E000C943E0048
:100040000C943E000C943E000C943E000C943E0038
:100050000C943E000C943E000C943E000C943E0028
:100060000C943E000C943E0011241FBECFEFD8E04C
:10007000DEBFCDBF0E9440000C9460000C940000D5
:10008000389A8AB18FEF8AB9319BFECF409A28E027
:1000900080E890E833E03A95F1F700008BB933E05F
:1000A0003A95F1F700001F9903C0392F309583234B
:1000B000215019F48BB94098E7CF9695892BEACF58
:0400C000F894FFCFE2
:00000001FF
