:100000000C9434000C9446000C9446000C9446006A
:100010000C9446000C9446000C9446000C94460048
:100020000C9446000C9446000C9446000C94460038
:100030000C9446000C9446000C9446000C94460028
:100040000C9446000C9446000C9446000C94460018
:100050000C9446000C9446000C9446000C94460008
:100060000C9446000C94460011241FBECFEFD8E03C
:10007000DEBFCDBF21E0A0E0B1E001C01D92A23102
:10008000B207E1F70E9448000C947C000C94000039
:1000900080E090E023B1FC01EE5FFE4F20830196EB
:1000A00088309105B9F7389A8AB18FEF8AB986B14D
:1000B000809301018091010181FDF9CF409A28E0F0
:1000C00080E890E833E03A95F1F700008BB933E02F
:1000D0003A95F1F7000033B13093000130910001FF
:1000E00037FD03C0392F30958323215019F09695A1
:0C00F000892BE8CF4098DBCFF894FFCFBD
:00000001FF
