:100000000C9434000C943E000C943E000C943E0082
:100010000C943E000C943E000C943E000C943E0068
:100020000C943E000C943E000C943E000C943E0058
:100030000C943E000C943E000C943E000C943E0048
:100040000C943E000C943E000C943E000C943E0038
:100050000C943E000C943E000C943E000C943E0028
:100060000C943E000C943E0011241FBECFEFD8E04C
:10007000DEBFCDBF0E9452000C945B000C940000C8
:1000800021E030E0882361F0482F50E0B901649FFF
:100090009001659F300D749F300D11248150F2CF77
:1000A000C90108958AB18FEF8AB983B187700E9420
:0A00B00040008BB9FACFF894FFCF9F
:00000001FF
